{
  "_format": "hh-sol-artifact-1",
  "contractName": "EHRAdd",
  "sourceName": "contracts/EHRAdd.sol",
  "abi": [
    {
      "anonymous": false,
      "inputs": [
        {
          "indexed": true,
          "internalType": "address",
          "name": "user",
          "type": "address"
        },
        {
          "indexed": false,
          "internalType": "string",
          "name": "ipfsHash",
          "type": "string"
        }
      ],
      "name": "RecordAdded",
      "type": "event"
    },
    {
      "inputs": [
        {
          "internalType": "string",
          "name": "ipfsHash",
          "type": "string"
        }
      ],
      "name": "addRecord",
      "outputs": [],
      "stateMutability": "nonpayable",
      "type": "function"
    },
    {
      "inputs": [
        {
          "internalType": "address",
          "name": "user",
          "type": "address"
        }
      ],
      "name": "getRecords",
      "outputs": [
        {
          "internalType": "string[]",
          "name": "",
          "type": "string[]"
        }
      ],
      "stateMutability": "view",
      "type": "function"
    },
    {
      "inputs": [
        {
          "internalType": "address",
          "name": "user",
          "type": "address"
        }
      ],
      "name": "getRecordsCount",
      "outputs": [
        {
          "internalType": "uint256",
          "name": "",
          "type": "uint256"
        }
      ],
      "stateMutability": "view",
      "type": "function"
    }
  ],
  "bytecode": "0x608060405234801561001057600080fd5b50610813806100206000396000f3fe608060405234801561001057600080fd5b50600436106100415760003560e01c806361d3161914610046578063a0076e8414610076578063d81aa8c4146100a6575b600080fd5b610060600480360381019061005b919061040d565b6100c2565b60405161006d91906105c5565b60405180910390f35b610090600480360381019061008b919061040d565b61010d565b60405161009d9190610581565b60405180910390f35b6100c060048036038101906100bb9190610436565b610224565b005b60008060008373ffffffffffffffffffffffffffffffffffffffff1673ffffffffffffffffffffffffffffffffffffffff168152602001908152602001600020805490509050919050565b60606000808373ffffffffffffffffffffffffffffffffffffffff1673ffffffffffffffffffffffffffffffffffffffff168152602001908152602001600020805480602002602001604051908101604052809291908181526020016000905b8282101561021957838290600052602060002001805461018c90610725565b80601f01602080910402602001604051908101604052809291908181526020018280546101b890610725565b80156102055780601f106101da57610100808354040283529160200191610205565b820191906000526020600020905b8154815290600101906020018083116101e857829003601f168201915b50505050508152602001906001019061016d565b505050509050919050565b6000803373ffffffffffffffffffffffffffffffffffffffff1673ffffffffffffffffffffffffffffffffffffffff1681526020019081526020016000208190806001815401808255809150506001900390600052602060002001600090919091909150908051906020019061029b9291906102ed565b503373ffffffffffffffffffffffffffffffffffffffff167f44626cfec8a165f72396cc5e247c6b96279f8c205a8d07c390df7aa5806205fa826040516102e291906105a3565b60405180910390a250565b8280546102f990610725565b90600052602060002090601f01602090048101928261031b5760008555610362565b82601f1061033457805160ff1916838001178555610362565b82800160010185558215610362579182015b82811115610361578251825591602001919060010190610346565b5b50905061036f9190610373565b5090565b5b8082111561038c576000816000905550600101610374565b5090565b60006103a361039e84610611565b6105e0565b9050828152602081018484840111156103bb57600080fd5b6103c68482856106e3565b509392505050565b6000813590506103dd816107c6565b92915050565b600082601f8301126103f457600080fd5b8135610404848260208601610390565b91505092915050565b60006020828403121561041f57600080fd5b600061042d848285016103ce565b91505092915050565b60006020828403121561044857600080fd5b600082013567ffffffffffffffff81111561046257600080fd5b61046e848285016103e3565b91505092915050565b60006104838383610500565b905092915050565b600061049682610651565b6104a08185610674565b9350836020820285016104b285610641565b8060005b858110156104ee57848403895281516104cf8582610477565b94506104da83610667565b925060208a019950506001810190506104b6565b50829750879550505050505092915050565b600061050b8261065c565b6105158185610685565b93506105258185602086016106f2565b61052e816107b5565b840191505092915050565b60006105448261065c565b61054e8185610696565b935061055e8185602086016106f2565b610567816107b5565b840191505092915050565b61057b816106d9565b82525050565b6000602082019050818103600083015261059b818461048b565b905092915050565b600060208201905081810360008301526105bd8184610539565b905092915050565b60006020820190506105da6000830184610572565b92915050565b6000604051905081810181811067ffffffffffffffff8211171561060757610606610786565b5b8060405250919050565b600067ffffffffffffffff82111561062c5761062b610786565b5b601f19601f8301169050602081019050919050565b6000819050602082019050919050565b600081519050919050565b600081519050919050565b6000602082019050919050565b600082825260208201905092915050565b600082825260208201905092915050565b600082825260208201905092915050565b60006106b2826106b9565b9050919050565b600073ffffffffffffffffffffffffffffffffffffffff82169050919050565b6000819050919050565b82818337600083830152505050565b60005b838110156107105780820151818401526020810190506106f5565b8381111561071f576000848401525b50505050565b6000600282049050600182168061073d57607f821691505b6020821081141561075157610750610757565b5b50919050565b7f4e487b7100000000000000000000000000000000000000000000000000000000600052602260045260246000fd5b7f4e487b7100000000000000000000000000000000000000000000000000000000600052604160045260246000fd5b6000601f19601f8301169050919050565b6107cf816106a7565b81146107da57600080fd5b5056fea26469706673582212207c2147e8e4be01be4ba653880f155e726263a25117fd7143eb943de29745333664736f6c63430008000033",
  "linkReferences": {},
  "deployedLinkReferences": {}
}