{
  "_format": "hh-sol-artifact-1",
  "contractName": "EHRAdd",
  "sourceName": "contracts/EHRAdd.sol",
  "abi": [
    {
      "anonymous": false,
      "inputs": [
        {
          "indexed": true,
          "internalType": "address",
          "name": "user",
          "type": "address"
        },
        {
          "indexed": false,
          "internalType": "string",
          "name": "key",
          "type": "string"
        },
        {
          "indexed": false,
          "internalType": "string",
          "name": "cid",
          "type": "string"
        },
        {
          "indexed": false,
          "internalType": "string",
          "name": "filePath",
          "type": "string"
        }
      ],
      "name": "RecordAdded",
      "type": "event"
    },
    {
      "anonymous": false,
      "inputs": [
        {
          "indexed": true,
          "internalType": "address",
          "name": "user",
          "type": "address"
        },
        {
          "indexed": false,
          "internalType": "uint256",
          "name": "recordIndex",
          "type": "uint256"
        }
      ],
      "name": "RecordDeleted",
      "type": "event"
    },
    {
      "anonymous": false,
      "inputs": [
        {
          "indexed": true,
          "internalType": "address",
          "name": "user",
          "type": "address"
        },
        {
          "indexed": false,
          "internalType": "uint256",
          "name": "recordIndex",
          "type": "uint256"
        },
        {
          "indexed": false,
          "internalType": "string",
          "name": "key",
          "type": "string"
        },
        {
          "indexed": false,
          "internalType": "string",
          "name": "cid",
          "type": "string"
        },
        {
          "indexed": false,
          "internalType": "string",
          "name": "filePath",
          "type": "string"
        }
      ],
      "name": "RecordUpdated",
      "type": "event"
    },
    {
      "inputs": [
        {
          "internalType": "string",
          "name": "key",
          "type": "string"
        },
        {
          "internalType": "string",
          "name": "cid",
          "type": "string"
        },
        {
          "internalType": "string",
          "name": "filePath",
          "type": "string"
        }
      ],
      "name": "addRecord",
      "outputs": [],
      "stateMutability": "nonpayable",
      "type": "function"
    },
    {
      "inputs": [
        {
          "internalType": "uint256",
          "name": "index",
          "type": "uint256"
        }
      ],
      "name": "deleteRecord",
      "outputs": [],
      "stateMutability": "nonpayable",
      "type": "function"
    },
    {
      "inputs": [
        {
          "internalType": "address",
          "name": "user",
          "type": "address"
        },
        {
          "internalType": "uint256",
          "name": "index",
          "type": "uint256"
        }
      ],
      "name": "getRecordAtIndex",
      "outputs": [
        {
          "components": [
            {
              "internalType": "string",
              "name": "key",
              "type": "string"
            },
            {
              "internalType": "string",
              "name": "cid",
              "type": "string"
            },
            {
              "internalType": "string",
              "name": "filePath",
              "type": "string"
            }
          ],
          "internalType": "struct EHRAdd.Record",
          "name": "",
          "type": "tuple"
        }
      ],
      "stateMutability": "view",
      "type": "function"
    },
    {
      "inputs": [
        {
          "internalType": "address",
          "name": "user",
          "type": "address"
        }
      ],
      "name": "getRecords",
      "outputs": [
        {
          "components": [
            {
              "internalType": "string",
              "name": "key",
              "type": "string"
            },
            {
              "internalType": "string",
              "name": "cid",
              "type": "string"
            },
            {
              "internalType": "string",
              "name": "filePath",
              "type": "string"
            }
          ],
          "internalType": "struct EHRAdd.Record[]",
          "name": "",
          "type": "tuple[]"
        }
      ],
      "stateMutability": "view",
      "type": "function"
    },
    {
      "inputs": [
        {
          "internalType": "address",
          "name": "user",
          "type": "address"
        }
      ],
      "name": "getRecordsCount",
      "outputs": [
        {
          "internalType": "uint256",
          "name": "",
          "type": "uint256"
        }
      ],
      "stateMutability": "view",
      "type": "function"
    },
    {
      "inputs": [
        {
          "internalType": "uint256",
          "name": "index",
          "type": "uint256"
        },
        {
          "internalType": "string",
          "name": "key",
          "type": "string"
        },
        {
          "internalType": "string",
          "name": "cid",
          "type": "string"
        },
        {
          "internalType": "string",
          "name": "filePath",
          "type": "string"
        }
      ],
      "name": "updateRecord",
      "outputs": [],
      "stateMutability": "nonpayable",
      "type": "function"
    }
  ],
  "bytecode": "0x608060405234801561001057600080fd5b506117aa806100206000396000f3fe608060405234801561001057600080fd5b50600436106100625760003560e01c8063061f9811146100675780633f723c621461008357806361d316191461009f57806386405068146100cf578063a0076e84146100ff578063e5b9b9f61461012f575b600080fd5b610081600480360381019061007c919061105f565b61014b565b005b61009d60048036038101906100989190610fc8565b6104c2565b005b6100b960048036038101906100b49190610f63565b6105f4565b6040516100c691906113e9565b60405180910390f35b6100e960048036038101906100e49190610f8c565b61063f565b6040516100f691906113c7565b60405180910390f35b61011960048036038101906101149190610f63565b610917565b6040516101269190611339565b60405180910390f35b61014960048036038101906101449190611088565b610b6a565b005b6000803373ffffffffffffffffffffffffffffffffffffffff1673ffffffffffffffffffffffffffffffffffffffff1681526020019081526020016000208054905081106101ce576040517f08c379a00000000000000000000000000000000000000000000000000000000081526004016101c5906113a7565b60405180910390fd5b60008190505b60016000803373ffffffffffffffffffffffffffffffffffffffff1673ffffffffffffffffffffffffffffffffffffffff16815260200190815260200160002080549050610222919061157b565b8110156103b3576000803373ffffffffffffffffffffffffffffffffffffffff1673ffffffffffffffffffffffffffffffffffffffff1681526020019081526020016000206001826102749190611525565b815481106102ab577f4e487b7100000000000000000000000000000000000000000000000000000000600052603260045260246000fd5b90600052602060002090600302016000803373ffffffffffffffffffffffffffffffffffffffff1673ffffffffffffffffffffffffffffffffffffffff168152602001908152602001600020828154811061032f577f4e487b7100000000000000000000000000000000000000000000000000000000600052603260045260246000fd5b906000526020600020906003020160008201816000019080546103519061162d565b61035c929190610d40565b5060018201816001019080546103719061162d565b61037c929190610d40565b5060028201816002019080546103919061162d565b61039c929190610d40565b5090505080806103ab9061165f565b9150506101d4565b506000803373ffffffffffffffffffffffffffffffffffffffff1673ffffffffffffffffffffffffffffffffffffffff168152602001908152602001600020805480610428577f4e487b7100000000000000000000000000000000000000000000000000000000600052603160045260246000fd5b60019003818190600052602060002090600302016000808201600061044d9190610dcd565b60018201600061045d9190610dcd565b60028201600061046d9190610dcd565b505090553373ffffffffffffffffffffffffffffffffffffffff167fdd8f9b8bb78c3654c0d21819fea0af920a136c830f6db0b0cb220422f316bab0826040516104b791906113e9565b60405180910390a250565b6000803373ffffffffffffffffffffffffffffffffffffffff1673ffffffffffffffffffffffffffffffffffffffff16815260200190815260200160002060405180606001604052808581526020018481526020018381525090806001815401808255809150506001900390600052602060002090600302016000909190919091506000820151816000019080519060200190610560929190610e0d565b50602082015181600101908051906020019061057d929190610e0d565b50604082015181600201908051906020019061059a929190610e0d565b5050503373ffffffffffffffffffffffffffffffffffffffff167f4173845d038f43d42fe1ac8689f7d3e5cec8a2b2f643897e8a472f0ca3efebb88484846040516105e79392919061135b565b60405180910390a2505050565b60008060008373ffffffffffffffffffffffffffffffffffffffff1673ffffffffffffffffffffffffffffffffffffffff168152602001908152602001600020805490509050919050565b610647610e93565b6000808473ffffffffffffffffffffffffffffffffffffffff1673ffffffffffffffffffffffffffffffffffffffff1681526020019081526020016000208054905082106106ca576040517f08c379a00000000000000000000000000000000000000000000000000000000081526004016106c1906113a7565b60405180910390fd5b6000808473ffffffffffffffffffffffffffffffffffffffff1673ffffffffffffffffffffffffffffffffffffffff1681526020019081526020016000208281548110610740577f4e487b7100000000000000000000000000000000000000000000000000000000600052603260045260246000fd5b90600052602060002090600302016040518060600160405290816000820180546107699061162d565b80601f01602080910402602001604051908101604052809291908181526020018280546107959061162d565b80156107e25780601f106107b7576101008083540402835291602001916107e2565b820191906000526020600020905b8154815290600101906020018083116107c557829003601f168201915b505050505081526020016001820180546107fb9061162d565b80601f01602080910402602001604051908101604052809291908181526020018280546108279061162d565b80156108745780601f1061084957610100808354040283529160200191610874565b820191906000526020600020905b81548152906001019060200180831161085757829003601f168201915b5050505050815260200160028201805461088d9061162d565b80601f01602080910402602001604051908101604052809291908181526020018280546108b99061162d565b80156109065780601f106108db57610100808354040283529160200191610906565b820191906000526020600020905b8154815290600101906020018083116108e957829003601f168201915b505050505081525050905092915050565b60606000808373ffffffffffffffffffffffffffffffffffffffff1673ffffffffffffffffffffffffffffffffffffffff168152602001908152602001600020805480602002602001604051908101604052809291908181526020016000905b82821015610b5f57838290600052602060002090600302016040518060600160405290816000820180546109aa9061162d565b80601f01602080910402602001604051908101604052809291908181526020018280546109d69061162d565b8015610a235780601f106109f857610100808354040283529160200191610a23565b820191906000526020600020905b815481529060010190602001808311610a0657829003601f168201915b50505050508152602001600182018054610a3c9061162d565b80601f0160208091040260200160405190810160405280929190818152602001828054610a689061162d565b8015610ab55780601f10610a8a57610100808354040283529160200191610ab5565b820191906000526020600020905b815481529060010190602001808311610a9857829003601f168201915b50505050508152602001600282018054610ace9061162d565b80601f0160208091040260200160405190810160405280929190818152602001828054610afa9061162d565b8015610b475780601f10610b1c57610100808354040283529160200191610b47565b820191906000526020600020905b815481529060010190602001808311610b2a57829003601f168201915b50505050508152505081526020019060010190610977565b505050509050919050565b6000803373ffffffffffffffffffffffffffffffffffffffff1673ffffffffffffffffffffffffffffffffffffffff168152602001908152602001600020805490508410610bed576040517f08c379a0000000000000000000000000000000000000000000000000000000008152600401610be4906113a7565b60405180910390fd5b6040518060600160405280848152602001838152602001828152506000803373ffffffffffffffffffffffffffffffffffffffff1673ffffffffffffffffffffffffffffffffffffffff1681526020019081526020016000208581548110610c7e577f4e487b7100000000000000000000000000000000000000000000000000000000600052603260045260246000fd5b90600052602060002090600302016000820151816000019080519060200190610ca8929190610e0d565b506020820151816001019080519060200190610cc5929190610e0d565b506040820151816002019080519060200190610ce2929190610e0d565b509050503373ffffffffffffffffffffffffffffffffffffffff167f90a15e1e646956adc21dc4949a76c93779bee7e71ed486598912b0a0ea53719085858585604051610d329493929190611404565b60405180910390a250505050565b828054610d4c9061162d565b90600052602060002090601f016020900481019282610d6e5760008555610dbc565b82601f10610d7f5780548555610dbc565b82800160010185558215610dbc57600052602060002091601f016020900482015b82811115610dbb578254825591600101919060010190610da0565b5b509050610dc99190610eb4565b5090565b508054610dd99061162d565b6000825580601f10610deb5750610e0a565b601f016020900490600052602060002090810190610e099190610eb4565b5b50565b828054610e199061162d565b90600052602060002090601f016020900481019282610e3b5760008555610e82565b82601f10610e5457805160ff1916838001178555610e82565b82800160010185558215610e82579182015b82811115610e81578251825591602001919060010190610e66565b5b509050610e8f9190610eb4565b5090565b60405180606001604052806060815260200160608152602001606081525090565b5b80821115610ecd576000816000905550600101610eb5565b5090565b6000610ee4610edf8461148f565b61145e565b905082815260208101848484011115610efc57600080fd5b610f078482856115eb565b509392505050565b600081359050610f1e81611746565b92915050565b600082601f830112610f3557600080fd5b8135610f45848260208601610ed1565b91505092915050565b600081359050610f5d8161175d565b92915050565b600060208284031215610f7557600080fd5b6000610f8384828501610f0f565b91505092915050565b60008060408385031215610f9f57600080fd5b6000610fad85828601610f0f565b9250506020610fbe85828601610f4e565b9150509250929050565b600080600060608486031215610fdd57600080fd5b600084013567ffffffffffffffff811115610ff757600080fd5b61100386828701610f24565b935050602084013567ffffffffffffffff81111561102057600080fd5b61102c86828701610f24565b925050604084013567ffffffffffffffff81111561104957600080fd5b61105586828701610f24565b9150509250925092565b60006020828403121561107157600080fd5b600061107f84828501610f4e565b91505092915050565b6000806000806080858703121561109e57600080fd5b60006110ac87828801610f4e565b945050602085013567ffffffffffffffff8111156110c957600080fd5b6110d587828801610f24565b935050604085013567ffffffffffffffff8111156110f257600080fd5b6110fe87828801610f24565b925050606085013567ffffffffffffffff81111561111b57600080fd5b61112787828801610f24565b91505092959194509250565b600061113f838361126e565b905092915050565b6000611152826114cf565b61115c81856114f2565b93508360208202850161116e856114bf565b8060005b858110156111aa578484038952815161118b8582611133565b9450611196836114e5565b925060208a01995050600181019050611172565b50829750879550505050505092915050565b60006111c7826114da565b6111d18185611503565b93506111e18185602086016115fa565b6111ea81611735565b840191505092915050565b6000611200826114da565b61120a8185611514565b935061121a8185602086016115fa565b61122381611735565b840191505092915050565b600061123b601683611514565b91507f5265636f726420646f6573206e6f742065786973742e000000000000000000006000830152602082019050919050565b6000606083016000830151848203600086015261128b82826111bc565b915050602083015184820360208601526112a582826111bc565b915050604083015184820360408601526112bf82826111bc565b9150508091505092915050565b600060608301600083015184820360008601526112e982826111bc565b9150506020830151848203602086015261130382826111bc565b9150506040830151848203604086015261131d82826111bc565b9150508091505092915050565b611333816115e1565b82525050565b600060208201905081810360008301526113538184611147565b905092915050565b6000606082019050818103600083015261137581866111f5565b9050818103602083015261138981856111f5565b9050818103604083015261139d81846111f5565b9050949350505050565b600060208201905081810360008301526113c08161122e565b9050919050565b600060208201905081810360008301526113e181846112cc565b905092915050565b60006020820190506113fe600083018461132a565b92915050565b6000608082019050611419600083018761132a565b818103602083015261142b81866111f5565b9050818103604083015261143f81856111f5565b9050818103606083015261145381846111f5565b905095945050505050565b6000604051905081810181811067ffffffffffffffff8211171561148557611484611706565b5b8060405250919050565b600067ffffffffffffffff8211156114aa576114a9611706565b5b601f19601f8301169050602081019050919050565b6000819050602082019050919050565b600081519050919050565b600081519050919050565b6000602082019050919050565b600082825260208201905092915050565b600082825260208201905092915050565b600082825260208201905092915050565b6000611530826115e1565b915061153b836115e1565b9250827fffffffffffffffffffffffffffffffffffffffffffffffffffffffffffffffff038211156115705761156f6116a8565b5b828201905092915050565b6000611586826115e1565b9150611591836115e1565b9250828210156115a4576115a36116a8565b5b828203905092915050565b60006115ba826115c1565b9050919050565b600073ffffffffffffffffffffffffffffffffffffffff82169050919050565b6000819050919050565b82818337600083830152505050565b60005b838110156116185780820151818401526020810190506115fd565b83811115611627576000848401525b50505050565b6000600282049050600182168061164557607f821691505b60208210811415611659576116586116d7565b5b50919050565b600061166a826115e1565b91507fffffffffffffffffffffffffffffffffffffffffffffffffffffffffffffffff82141561169d5761169c6116a8565b5b600182019050919050565b7f4e487b7100000000000000000000000000000000000000000000000000000000600052601160045260246000fd5b7f4e487b7100000000000000000000000000000000000000000000000000000000600052602260045260246000fd5b7f4e487b7100000000000000000000000000000000000000000000000000000000600052604160045260246000fd5b6000601f19601f8301169050919050565b61174f816115af565b811461175a57600080fd5b50565b611766816115e1565b811461177157600080fd5b5056fea26469706673582212202f061ff7504353d46997eef36d9dbee8fe263b10fb5ac7437e73264f44d4335964736f6c63430008000033",
  "linkReferences": {},
  "deployedLinkReferences": {}
}